:100000000A128A116D2F00308A000408840A8207C0
:10001000003441344E344F344B3448344134553439
:1000200054344F344D344134543449344F344E34C5
:100030000034533455344234533443345234493405
:0600400042344534003497
:100EDA0083010A128A11D12FF200720883120313B6
:100EEA0087000810881008152130F1007630F000CC
:100EFA00F00B7D2FF10B7D2F0000831203130811D5
:100F0A000800F2007208831203138700081488107D
:100F1A0008152130F1007630F000F00B922FF10B1A
:100F2A00922F0000831203130811080038300A12A6
:100F3A008A1171270A128A1106300A128A11712738
:100F4A000A128A110C300A128A1171270A128A119E
:100F5A0001300A128A1171270A128A110800F50053
:100F6A00F601C92F7608750784000A128A11032030
:100F7A000A128A110A128A1186270A128A11013064
:100F8A00F4007408F607C92F73087602031CCE2FE3
:100F9A00CF2FB72FD02F080083160313870188019C
:100FAA000A128A119B270A128A11DB2F83300A122E
:100FBA008A1171270A128A110930F7007708F3009B
:100FCA0011300A128A11B4270A128A11C0300A1281
:100FDA008A1171270A128A110F30F7007708F30075
:100FEA0001300A128A11B4270A128A11DB2FDB2F69
:060FFA000A128A11002812
:02400E00BAFFF7
:00000001FF
